:020000040800F2
:100000008009002045010008C54000082B3B00087E
:10001000E13E000881120008E14B000800000000EA
:100020000000000000000000000000003143000854
:100030000515000800000000C9400008354300080D
:100040005F0100085F0100085F0100085F01000810
:100050005F0100085F0100085F0100085F01000800
:100060005F0100085F0100085F0100085F010008F0
:100070005F0100085F0100085F010008C914000863
:100080005F0100085F0100085F0100085F010008D0
:100090005F0100085F0100085F0100085F010008C0
:1000A0005F0100085F0100085F0100085F010008B0
:1000B0005F0100085F0100085F0100085F010008A0
:1000C0005F0100085F0100085F0100085F01000890
:1000D0005F010008D14B00085F0100085F010008C4
:1000E0005F0100085F0100085F0100085F01000870
:1000F0005F0100085F0100085F0100085F01000860
:100100005F0100085F0100085F0100085F0100084F
:100110005F0100085F010008B5430008C5430008FF
:100120005F0100085F0100085F0100085F0100082F
:10013000DFF80CD000F0C2FE004800474D5900081F
:10014000800900200648804706480047FEE7FEE792
:10015000FEE7FEE7FEE7FEE7FEE7FEE7FEE7FEE777
:10016000B343000831010008202A04DB203A21FAB9
:1001700002F00021704721FA02F3D040C2F12002C0
:10018000914008431946704740EA01039B0703D09A
:1001900009E008C9121F08C0042AFAD203E011F8C6
:1001A000013B00F8013B521EF9D27047D2B201E088
:1001B00000F8012B491EFBD270470022F6E710B56C
:1001C00013460A4604461946FFF7F0FF204610BDC5
:1001D000CAB2401E10F8011F8A4202D00029F9D18C
:1001E00000207047421C10F8011B0029FBD1801A27
:1001F000704730B505460020034600E05B1C934283
:1002000005D2EC5CC85C201A01D1002CF6D130BDBF
:100210000FB400B58DB010A909900B9000914FF06C
:10022000FF300A9000200C90054806900548079082
:100230006A4609A80F9900F0B3FC0DB05DF814FBF5
:10024000BD0B0008DB0B00082DE9FF5FD2E901A719
:100250004FF00008916999461446DDF838B04646DB
:1002600001988847054659EA0B0005D009E0A169C5
:10027000761C019888470546216A28468847002849
:10028000F5D1681C03D05FEACA7005D015E04FF0C5
:10029000FF3004B0BDE8F09F2068011D2160D0F858
:1002A00000800AE05FEACA7001D108F8015BA16929
:1002B000761C7F1E019888470546002F1ADD681CB2
:1002C00018D0B9F1000F0DD0E81705EBD06042113E
:1002D00020F01F0059F822102A1A012090400142F4
:1002E000E0D107E0BBF1000FDCD1216A2846884746
:1002F0000028D7D0E16901988847BBF1000F07D1EA
:10030000002E05DD5FEACA7002D1002188F80010D6
:10031000A068B84203DDBBF1000F03D017B16FF046
:100320000100B6E73046B4E72DE9FF4F087883B007
:100330009946FF2805D0491C2D2804D00024002010
:1003400008E000200BE00124F9E700EB800003EB5C
:100350004000491C0B78FF2BF7D104B14042002329
:100360000293147819461D462D2C01D02B2C04D154
:10037000521C2D2C13D000240294AA461478FF2C72
:100380000FD00A25A3FB057801FB05814FF0000C77
:1003900003FB0C11521CE3194AEB0101EEE70124A7
:1003A000EAE7814453EA010002D019F5C87F06DA72
:1003B00003980021C0E9001107B0BDE8F08F0025C7
:1003C000AE4E2F46DFF8B882184600F052FDCDE958
:1003D0000001B9F1000002DAC9F1000400E00446AE
:1003E0000023A74A1AEB030B42EB045A12E0E00782
:1003F00007D02A4633463846414600F00DFA0746F4
:1004000088462A4633461046194600F005FA054646
:100410000E466410002CEAD1DDE90001B9F1000FAD
:100420005A46534606DA00F069FA3A46434600F067
:1004300065FA05E000F0F0F93A46434600F0ECF9C1
:10044000029A0AB181F00041039AC2E90001B3E7C0
:100450002DE9FF4F1F468DB0D7E901464FF0FF3819
:100460002E2045464FF000090B90B9696D1C0E987F
:100470008847396A824688470028F6D1BAF1FF3F9B
:100480000AD024F4D064002E11DDBAF12B0F08D06D
:10049000BAF12D0F0BD102E0404611B08DE744F4C4
:1004A0008064B9696D1C0E9888478246761E69463D
:1004B000600501D52D2000E02B208DF8000001F112
:1004C000010B0DF1200809E0B9696D1C0E988847F1
:1004D00082460F9844F40074761E0560002E02DDFB
:1004E000BAF1300FF0D00B998A453ED144F0800428
:1004F00006E00F99681CA9F1010944F40074086032
:10050000B9696D1C761E0E98884782463028F0D057
:100510002BE00B998A4505D1200603D444F08004D2
:10052000761E18E0504604F05BFC08B30DF1130191
:10053000761E44F400748B4508D2AAF130000BF803
:10054000010B200607D5A9F1010003E0200602D423
:1005500009F101008146A00502D50F99681C0860C9
:10056000B9696D1C0E9888478246002ED1DC53E095
:10057000002E51DDBAF1650F02D0BAF1450F4BD113
:10058000A00549D5B9696D1C24F44074761E0E98F7
:1005900088478246002E0CDD2B2804D0BAF12D0F9F
:1005A00007D144F48074B9696D1C0E98884782465F
:1005B000761EE00501D52D2100E02B2108F8011B56
:1005C000CDF82C8021E00DF12901761E44F4007451
:1005D00088450CD2AAF1300010F0FF0088F8000026
:1005E00002D10B99884509D908F1010806E0E00518
:1005F00001D5244801E042F20F708146B9696D1CB3
:100600000E98884782460F980560002E04DD5046FC
:1006100004F0E6FB0028D6D1F9690E988847FF2040
:100620008BF8000088F800000020069007904B46E9
:100630006A4608A906A8FFF777FEA00502D46FF066
:1006400001002AE714F0240F0AD0E00714D1DDE9F5
:1006500006123868031D3B600068C0E900120BE019
:10066000DDE9060100F01EFA0146E00704D1386812
:10067000021D3A600068016028460EE70000144041
:100680000000F03FF1D8FFFFF0B480EA0102D40F80
:100690004200B2EB410F02D20246084611464A0020
:1006A00042D0C30DDDB2C1F3C752AD1A202D35DAE9
:1006B000C1F3160141F4000204B15242C5F1200613
:1006C00002FA06F12A411044B3EBD05F23D0C4B143
:1006D000012DA0EBC35009DCF0BC4FF0004202EA50
:1006E000C352DBB200F5000000F091BA400000F107
:1006F000807000EBC350A0F1807040EAD1704900D7
:1007000009E0490841EAC071A0EBC35000F50000C0
:10071000400800EBC350F0BC00F070BA6142012207
:1007200002EB4101001BF6E7F0BC704781F000418D
:10073000AAE780F00040A7E780EA010210B502F0C6
:100740000043400022D04A001FD0010E01EB12618D
:10075000C0F35600C2F3560240F4000042F4000217
:10076000A0FB022000047F39140400D0401C50EA92
:10077000124001D44000491EC2B20C0604EBD01056
:10078000401C4008802A02D003E0002010BD20F069
:100790000100002900DA0020184310BD30B480EABF
:1007A000010202F0004530F0004221F0004013D079
:1007B00090B1C30DD40DC2F31601C0F31600E41AB4
:1007C00041F4000140F400027D34914201D3641CE5
:1007D00000E04900002C02DA30BC002070474FF4E2
:1007E00000000023914201D3891A034340084FEAD5
:1007F0004101F7D151B1914202D14FF0004105E0E2
:1008000002D24FF0010101E06FF0010103EBC4508F
:10081000284430BC00F0F2B92DE9FE4F81EA030410
:1008200004F0004421F0004100944FF0000B23F04D
:10083000004350EA01045ED052EA03045BD0C3F3E4
:100840000A54C1F30A552C44A4F2F3340194A0FBDA
:100850000254C1F3130141F48011C3F3130343F4B1
:10086000801301FB024400FB034E840A970A44EA0A
:10087000815447EA8357A4FB076802958D0A05FB5C
:1008800007854FEA932C04FB0C542705029D4FEA81
:10089000065847EA1637B5EB08056EEB070C870ECE
:1008A000920E47EA811742EA8312A7FB0201B6EBD8
:1008B0000B0164EB00042B0D43EA0C335E1844EB90
:1008C0001C50DA465146E7FB0201C5F313044FEA18
:1008D0000B3343EA14534FEA0432019C43EA060304
:1008E000A4F10C040294009CCDE900B400F0CCF912
:1008F00003B0BDE8F08F00200146F9E72DE9F04D87
:1009000081EA030404F0004B21F0004514464FF047
:10091000000A23F0004150EA050220D054EA010207
:100920001DD0C5F30A570246C5F31303C1F31300E4
:10093000C1F30A5640F4801543F48013A7EB060870
:10094000101BD64608F2FD3873EB050002D308F100
:10095000010801E092185B41B8F1000F03DA0020B2
:100960000146BDE8F08D00204FF480110646844614
:100970000EE0171B73EB050705D3121B63EB050392
:1009800006434CEA010C49084FEA300092185B41DB
:1009900050EA0107EDD152EA030012D082EA0400C6
:1009A00083EA0501084305D0101BAB4106D20122A2
:1009B000002306E000224FF0004302E06FF0010246
:1009C00053101AEB06004CEB085110EB0A0041EBF8
:1009D0000B01BDE8F04D00F048B9C10F80EAE070AE
:1009E0000844CA079623002100F011B900F0004224
:1009F00020F00040C10DC0F3160040F400007F2934
:100A000001DA00207047962903DCC1F19601C84045
:100A100001E096398840002AF4D04042704700F047
:100A2000004230F000400AD0C10D01F56071C0F302
:100A3000160042EA0151C2084007114370470020E6
:100A40000146704730B5041E71F1000404DB4FF01D
:100A50000044404264EB0101141E73F1000405DB05
:100A60001C464FF00043524263EB04038B4208BF25
:100A7000824230BD30B5041E71F1000404DB4FF03A
:100A80000044404264EB0101141E73F1000405DBD5
:100A90001C464FF00043524263EB0403994208BFE7
:100AA000904230BD01F0004330B421F0004150EAE3
:100AB000010206D00A0DA2F56072C1F31301002AEB
:100AC00002DC30BC00207047440F44EAC104C1007E
:100AD000E01830BC00EBC25000F090B8002801DBF9
:100AE000C0F10040002901DBC1F1004181427047A3
:100AF000002801DBC0F10040002901DBC1F1004109
:100B00008842704730B50B46014600202022012460
:100B100009E021FA02F59D4205D303FA02F5491BCB
:100B200004FA02F52844151EA2F10102F1DC30BDE1
:100B30002DE9F05F0546002092469B468846064612
:100B4000814640241BE02846414647462246FFF79F
:100B50000BFB53465A46C01A914110D31146184612
:100B6000224600F0BDF92D1A67EB01084F462246D8
:100B70000120002100F0B4F917EB00094E41201EBE
:100B8000A4F10104DFDC484631462A464346BDE86D
:100B9000F09F000002681144137801601846704706
:100BA000D16004495161044911620021116111466B
:100BB00000F0BCB9950B0008230F0008426842B151
:100BC000016811F8013B23B1521EC0E9001218461A
:100BD00070470121C160881E704742685AB1C368DE
:100BE000016843B983688B4205D0491E521CC0E995
:100BF0000012002070474FF0FF3070470029A8BF57
:100C00007047401C490008BF20F00100704710B435
:100C1000B0FA80FC00FA0CF050EA010404BF10BCEA
:100C2000704749B1CCF1200421FA04F411FA0CF117
:100C300018BF012121430843A3EB0C01CB1D4FEA50
:100C400000614FEA102042BF002010BC704700EB4B
:100C5000C35010440029A4BF10BC7047401C490079
:100C600008BF20F0010010BC704710B5141E73F1CE
:100C7000000408DA401C41F1000192185B411A435C
:100C800001D120F0010010BD2DE9F04D92469B46A8
:100C900011B1B1FA81F202E0B0FA80F2203290464E
:100CA00000F01EF904460F4640EA0A0041EA0B0133
:100CB00053465A46084313D0114653EA010019D04F
:100CC000C8F140025046FFF74FFA05460E4650461F
:100CD0005946424600F004F9084305D0012004E0DB
:100CE00020463946BDE8F08D0020054346EAE0760F
:100CF0002C4337430A986305E40AA0EB080000225E
:100D0000FD0A44EA47540A3002D500200146E9E7CB
:100D1000010510196941DDE9084500196941BDE87F
:100D2000F04DA2E72DE9FE4F804681EA0300C00F97
:100D30000C46009021F0004123F00045B8EB020082
:100D4000A94105D24046214690461C460B46024624
:100D500023F00040104347D0270DC7F30A00C3F328
:100D60000A510290401A019040286BDAC3F3130035
:100D700040F4801B0098924620B10023D2EB030A76
:100D800063EB0B0B01985946C0F14002504600F04E
:100D9000A7F806460D4650465946019A00F0AFF8AE
:100DA00010EB08006141002487EA115284EAE773DE
:100DB0001A4340D0009A62B3019A012A4FEA0752BF
:100DC00015DC001B61EB02014FF0004202EA075202
:100DD000CDE90042001C41F5801132462B46FFF759
:100DE00053FF03B0BDE8F08F40462146F9E7001BF2
:100DF00061EB0201001C41F5801300185B412018D3
:100E0000A2F5001747EB030140EAD570B6196D4112
:100E100011E06D084FEA360645EAC0754FEA075201
:100E2000001B61EB0201001C41F5801149084FEAEB
:100E300030000019514132462B4603B0BDE8F04F57
:100E4000FFF713BF0098012240000023D0EB0202FD
:100E500063EBE073009821464FEAE074B8EB0000C2
:100E600061EB0401E9E783F000435BE781F00041B7
:100E700058E70EB540F2334202920022CDE900223B
:100E80001346FFF701FF03B000BDC1F30A52C1F3DF
:100E9000130140F2FF3341F480119A4202DA00203C
:100EA0000146704740F233439A42A2F2334202DCD9
:100EB0005242FFF759B900F013B80000064C074D35
:100EC00006E0E06840F0010394E80700984710341A
:100ED000AC42F6D3FFF730F9C0600008E0600008CC
:100EE000202A04DB203A00FA02F1002070479140EA
:100EF000C2F1200320FA03F3194390407047202ADF
:100F000006DBCB17203A41FA02F043EAE07306E031
:100F100041FA02F3D040C2F1200291400843194641
:100F20007047C0B24FF4F05100F096B92DE9F34F7D
:100F30008BB04FF0000801F10C000C464FF0010B94
:100F400046460DF1080A0190626901210198904717
:100F5000051E2DD0252D2CD0216A8847C0B162698D
:100F6000012101989047216A88470028F7D1411E46
:100F700062690198904700E0761CA1690B98884748
:100F8000216A88470028F7D1E1690B988847DBE799
:100F9000A1690B9888470746A84201D1761CD3E780
:100FA000E1690B9888477F1C02D1B8F1000F6FD020
:100FB00046E1002762693D463946019890472A2854
:100FC00004D162690121019890470125DFF88492DC
:100FD0006269012101989047A0F130010A290AD2E3
:100FE0004F45E5DC07EB870100EB4107303FDFD4DD
:100FF00045F01005ECE7E90601D46FF000476C28D6
:101000000AD04C2814D0682815D06A280DD074282E
:101010001CD07A281AD01DE06269012101989047FE
:101020006C2802D045F0040514E045F002050DE0FF
:1010300045F020050AE0626901210198904768287F
:1010400002D045F0080505E045F40065626901211C
:1010500001989047C4E9015765283DD019DC58280C
:101060007AD00CDC452837D004DC252826D041284E
:1010700031D131E046282FD047282CD12CE05B28F5
:1010800077D0612828D063287CD0642823D15AE007
:10109000D0E06F2848D008DC66281DD067281BD018
:1010A000692821D06E2816D127E0702845D07328F2
:1010B00068D0752847D078280DD14DE0A1690B98EC
:1010C0008847054625283FF469AFE1690B988847B2
:1010D0006D1C3FF46AAFB3E023466A466FF001002F
:1010E0000B99FFF7B5F99EE045F040006060A80756
:1010F00023464FF0000236D43EE0E8077FF447AFC6
:101100002068011D21600068290501D506701BE7D4
:10111000290701D5068017E7A90703D5F117C0E90C
:10112000006111E706600FE745F040006060A80726
:1011300023464FF0080216D41EE040F60E0125EAC1
:101140000100606016E045F040006060A80723469B
:101150004FF00A0207D40FE045F040006060A80796
:1011600008D5234610226FF001000B99AFF30080E1
:1011700059E007E0234610226FF001000B99AFF30E
:10118000008050E04FF000094F464B46632802D0E4
:101190005B2806D040E0E80601D40120A0600127CA
:1011A0003AE062690121019890475E2805D14FF02D
:1011B00001096269494601989047216939B90021BE
:1011C0000A46534643F82120491C0829FADBB0B3EC
:1011D000216969B9C11700EBD16253110AEB830190
:1011E00022F01F02821A01200B68904003430B601B
:1011F00062690121019890475D28E8D1B9F1000F9B
:1012000009D00020514651F82020D24341F8202037
:10121000401C0828F7DB02AB224600976FF0010064
:101220000B99FFF711F800280CDA401C08D1BBF12C
:10123000000F05D04FF0FF300DB0BDE8F08FFFE795
:101240004046F9E7E90701D108F1010806444FF0EB
:10125000000B79E6CCCCCC0C7F2801D9002208E029
:10126000064A02EB5002C007127800D1120902F0C0
:101270000F0201209040084070470000D65F000830
:1012800000BFFEE710B500240C48D0F8BC200C4885
:1012900001680A48983004F09BFB0446094920463F
:1012A000FFF726FC01D2074C05E007492046FFF76F
:1012B00015FC00D2044C204610BD00007C0200202A
:1012C0002C00002000004843000048C310B52F4800
:1012D0000078012803D02E480078012855D12D48E8
:1012E0000078401C2B49087008460078022809DB6A
:1012F00000200870FFF7C6FF27490860084600680D
:101300002649086024480168254804F022FE234845
:10131000016823484C3004F01CFE002000F0B0F8B7
:1013200020490860012000F0ABF81F4908601F4900
:101330001C480068FFF7DCFB01D21C4801E019489B
:101340000068184908601A4916480068FFF726FA2D
:1013500004461849FFF7F0F9174908601349124885
:101360000068FFF7C5FB01D2104801E00E48006895
:101370000D4908600E490C480068FFF70FFA044653
:101380000C49FFF7D9F90D49086010BD7000002025
:1013900071000020440000203000002034000020B4
:1013A0007C0200203C000020400000200020FC4483
:1013B00000E0FF440000404114000020180000201D
:1013C00000B585B000201949194A1A4BCDE9013200
:1013D000CDE90310184800234FF07C5219460090C5
:1013E000164804F0B9FD00201549164A114BCDE905
:1013F0000132CDE90310104800234FF07C5219460A
:1014000000900E484C3004F0A7FD00200E4ACDE9B4
:101410000102039004900D4800230D4A19460090E4
:101420000648983004F098FD05B000BDCDCC4C3F87
:101430009A99D93F0000FA440020FC447C02002025
:101440003333733F0000E03F000020410000484379
:10145000CDCC4C3E10B504462146084804F0FEFCB5
:1014600004F1240105484C3004F0F8FC04F1480173
:101470000248983004F0F2FC10BD00007C0200200D
:1014800070B5044600253CB90A4802680A4801685C
:101490000A4804F09DFA0546012C08D10848026864
:1014A0000848016805484C3004F092FA0546284681
:1014B00070BD0000300000201C0000207C020020D5
:1014C000340000202000002010B5024800F0BEF9D2
:1014D00010BD00003802002030B590F840500124C3
:1014E000AC40C56B6C60046863604468102C04D128
:1014F0000468A2600468E16003E00468A160046815
:10150000E26030BD7047000010B504461B4804601F
:1015100080211B48FEF751FE2AE0194A194801684C
:101520001948006802F016FE002821D104F000F9E5
:10153000C0B901201549087010490968601A04F003
:1015400003F804F0B7FC0D480068211A10A003F05E
:1015500049FB0A490968601A04F0C2FA00200B49E5
:10156000087009E005480068211A12A003F03AFB50
:10157000024800680028D0DC00BF10BD0000002039
:10158000AC030020500000204C0000204800002048
:1015900073656E742061667465722025646D7320B6
:1015A0002D2D3E20205049445F5345545F4F4B2121
:1015B0000D0A000073656E742061667465722025E3
:1015C000646D73202D2D3E2020434F4D4D414E44E0
:1015D0005F4552524F52210D0A0000001448006826
:1015E000406A00B213490880002011490968486226
:1015F00011480068406A00B2104908800846008817
:10160000404200B2088000200B49096848620C483B
:1016100000680849B1F90010084409490860094800
:1016200000680649B1F9001008440649086070478F
:10163000880000206C000020A80100206E0000201F
:10164000640000206800002072B600BFFEE701467B
:10165000002291F82100022808D00420886300BFEE
:10166000002081F8200000BF012070470868006852
:1016700020F00E000B6818600868006820F0010078
:101680000B68186091F8403001209840CB6B58608F
:10169000012081F8210000BF002081F8200000BF58
:1016A0001046E2E770B50446002594F821000228B0
:1016B00003D00420A0630125C1E02068006820F069
:1016C0000E00216808602068006820F00100216891
:1016D00008605C492068884252D95A4978392068A4
:1016E000884201D1012047E0564964392068884288
:1016F00001D1102040E0534950392068884201D17F
:10170000801539E04F493C392068884201D1801466
:1017100032E04C4928392068884202D14FF48030A9
:101720002AE0484914392068884202D14FF48010D9
:1017300022E044492068884201D140041CE042492B
:101740002068884201D1012016E03F491431206809
:10175000884201D110200FE03B492831206888429F
:1017600001D1801508E038493C312068884201D118
:10177000801401E04FF480303349091F086051E0C4
:10178000304978392068884201D1012047E02D494D
:1017900064392068884201D1102040E0294950393D
:1017A0002068884201D1801539E026493C392068FB
:1017B000884201D1801432E02249283920688842C9
:1017C00002D14FF480302AE01E4914392068884243
:1017D00002D14FF4801022E01A492068884201D1DA
:1017E00040041CE018492068884201D1012016E01D
:1017F000154914312068884201D110200FE01249A8
:1018000028312068884201D1801508E00E493C311A
:101810002068884201D1801401E04FF480300949EA
:1018200080394860012084F8210000BF002084F83E
:10183000200000BF606B10B12046616B88472846CE
:1018400070BD0000800002400804024070B50446EC
:10185000E06B05682068066894F840100420884012
:101860002840002875D006F004000028FAD020682F
:10187000006800F0200028B92068006820F004000B
:1018800021680860D5492068884254D9D3497839FD
:101890002068884201D1042049E0D0496439206899
:1018A000884201D1402042E0CC495039206888422A
:1018B00001D100153BE0C9493C392068884202D17A
:1018C0004FF4804033E0C54928392068884202D16E
:1018D0004FF480202BE0C14914392068884202D19E
:1018E0004FF4800023E0BD492068884201D1C00444
:1018F0001DE0BB492068884201D1042017E0B849A7
:1019000014312068884201D1402010E0B4492831C8
:101910002068884201D1001509E0B1493C312068B6
:10192000884202D14FF4804001E04FF48020AC495E
:10193000091F086054E0A94978392068884201D11C
:1019400004204AE0A54964392068884202D1402039
:1019500043E04CE0A14950392068884201D100158C
:101960003BE09E493C392068884202D14FF48040D8
:1019700033E09A4928392068884202D14FF4802008
:101980002BE0964914392068884202D14FF4800038
:1019900023E092492068884201D1C0041DE09049AB
:1019A0002068884201D1042017E08D491431206855
:1019B000884201D1402010E08949283120688842BE
:1019C00001D1001509E086493C312068884202D1E6
:1019D0004FF4804001E04FF4802080498039486016
:1019E000E06A002802D02046E16A8847F4E094F8D3
:1019F0004010022088402840002871D006F00200E4
:101A00000028FAD02068006800F0200040B9206863
:101A1000006820F00A0021680860012084F8210095
:101A20006E492068884254D96C49783920688842C8
:101A300001D1022049E0694964392068884201D116
:101A4000202042E0654950392068884201D1401584
:101A50003BE062493C392068884202D14FF4005093
:101A600033E05E4928392068884202D14FF40030C3
:101A70002BE05A4914392068884202D14FF40010F3
:101A800023E056492068884201D180041DE0544972
:101A90002068884201D1022017E0514914312068A2
:101AA000884201D1202010E04D4928312068884229
:101AB00001D1401509E04A493C312068884202D1F1
:101AC0004FF4005001E04FF400304549091F086011
:101AD00054E0424978392068884202D102204AE025
:101AE00057E03E4964392068884201D1202042E015
:101AF0003A4950392068884201D140153BE03749C6
:101B00003C392068884202D14FF4005033E0334919
:101B100028392068884202D14FF400302BE02F4949
:101B200014392068884202D14FF4001023E02B4979
:101B30002068884201D180041DE02949206888423C
:101B400001D1022017E0264914312068884201D1D2
:101B5000202010E0224928312068884201D1401518
:101B600009E01F493C312068884202D14FF40050FF
:101B700001E04FF4003019498039486000BF00206F
:101B800084F8200000BFA06A30B32046A16A8847CD
:101B900022E094F84010082088402840E0B106F088
:101BA0000800C8B12068006820F00E0021680860B5
:101BB00094F8401001208840E16B48600120A06348
:101BC00084F8210000BF002084F8200000BF206BB3
:101BD00010B12046216B884770BD00008000024094
:101BE000080402400146002209B9012070471E4B3B
:101BF000086898420BD21D4B0868C01A1423B0FB2A
:101C0000F3F08000086419480838C8630AE0164BEE
:101C10000868C01A1423B0FBF3F08000086412486F
:101C20000838C863022081F821000868026843F67A
:101C3000F0708243D1E901031843CB6818430B6964
:101C400018434B6918438B691843CB691843024307
:101C50000868026000208863012081F821000020CC
:101C600081F8200000BFC1E70804024008000240DC
:101C70002DE9F04104460D4616461F464FF0000878
:101C800000BF94F82000012802D10220BDE8F081B5
:101C9000012084F8200000BF94F8210001282CD1F5
:101CA000022084F821000020A0632068006820F052
:101CB0000100216808603B46324629462046FFF76E
:101CC0000BFCE06A30B12068006840F00E0021682B
:101CD00008600BE02068006820F0040021680860BC
:101CE0002068006840F00A002168086020680068E9
:101CF00040F001002168086006E000BF002084F881
:101D0000200000BF4FF002084046BFE72DE9F8472A
:101D1000024600239C467BE14FF0010808FA03F4D9
:101D2000D1F8008008EA0400A0427DD1DFF8F4A2D7
:101D3000D1F80480A8EB0A09D0453AD014DCB8F1F8
:101D4000030F50D009DCB8F1000F31D0B8F1010F0A
:101D50001CD0B8F1020F49D120E0B8F1110F18D012
:101D6000B8F1120F42D11EE0B9F5881F25D006DC6C
:101D7000B9F5803F20D0B9F5801F37D11AE0B9F509
:101D8000001F18D0B9F5041F30D117E0D1F80CC0EE
:101D90002DE0D1F80C8008F1040C28E0D1F80C807B
:101DA00008F1080C23E0D1F80C8008F10C0C1EE0BF
:101DB00000BF00BF00BF00BF00BF00BFD1F8088058
:101DC000B8F1000F02D14FF0040C0BE0D1F80880FD
:101DD000B8F1010F03D14FF0080C146102E04FF08D
:101DE000080C546103E04FF0000C00E000BF00BF9E
:101DF000FF2801D8904601E002F104084646FF287A
:101E000002D84FEA830803E0A3F108084FEA8808E4
:101E10004746D6F800804FF00F0909FA07F928EA7B
:101E200009080CFA07F900E07AE048EA0908C6F860
:101E30000080D1F8048008F08058B8F1805F6FD13D
:101E400000BFDFF8E481D8F8188048F00108DFF817
:101E5000D891C9F81880C846D8F8188008F0010849
:101E6000CDF8008000BF00BF4FEAB9384FEA9309B0
:101E700058F829504FEA83784FEA18794FF00F0845
:101E800008FA09F825EA0805DFF8A081424502D1E1
:101E90004FF0000824E0DFF89881424502D14FF06E
:101EA00001081DE0DFF88C81424502D14FF00208A5
:101EB00016E0DFF88481424502D14FF003080FE0BD
:101EC000DFF87881424502D14FF0040808E0DFF8DE
:101ED0007081424502D14FF0050801E04FF006083D
:101EE0004FEA83794FEA197908FA09F848EA0505B3
:101EF000DFF850814FEA930948F82950D1F804805F
:101F000008F48018B8F5801F0BD1DFF83C81D8F8B1
:101F1000008048EA0008DFF83091C9F800800AE044
:101F200075E0DFF82481D8F8008028EA0008DFF89F
:101F30001891C9F80080D1F8048008F40018B8F5A9
:101F4000001F0ED1DFF8008108F10408D8F80080E6
:101F500048EA0008DFF8F09009F10409C9F80080A8
:101F60000DE0DFF8E48008F10408D8F8008028EAE2
:101F70000008DFF8D49009F10409C9F80080D1F80D
:101F8000048008F40038B8F5003F0ED1DFF8B880BF
:101F9000A8F10408D8F8008048EA0008DFF8A89003
:101FA000A9F10409C9F800800DE0DFF89C80A8F1D0
:101FB0000408D8F8008028EA0008DFF88C90A9F11E
:101FC0000409C9F80080D1F8048008F48038B8F515
:101FD000803F0ED1DFF87080A8F10808D8F80080A3
:101FE00048EA0008DFF86090A9F10809C9F8008004
:101FF0000DE0DFF85480A8F10808D8F8008028EA3E
:102000000008DFF84490A9F10809C9F800805B1CBA
:10201000D1F8008028FA03F8B8F1000F7FF47CAE05
:10202000BDE8F887000011100010024000080140D0
:10203000000C014000100140001401400018014054
:10204000001C0140080001400804014010B5C268AE
:1020500021EA020302EA010443EA0443036110BDDA
:102060000AB1016101E00B04036170470148006897
:102070007047000004000020034800680349097805
:102080000844014908607047040000200C0000204B
:1020900010B50848006840F01000064908600320A9
:1020A00000F0ACF8002000F007F800F02BF800205A
:1020B00010BD00000020024070B504460E480078B4
:1020C0004FF47A71B1FBF0F00C490968B1FBF0F5FF
:1020D000284600F0FDFB08B1012070BD102C07D28E
:1020E00000222146501E00F04BF80548046001E034
:1020F0000120F2E70020F0E70C0000201000002093
:102100000800002008B500BF1348806940F00100B6
:10211000114988610846806900F00100009000BF05
:1021200000BF00BF0846C06940F08050C861084643
:10213000C06900F08050009000BF00BF052000F093
:102140005DF800BF0549486820F0E06040F000708D
:10215000486000BF08BD00000010024000000140C0
:1021600001460846002809DB00F01F0301229A40BF
:1021700043099B0003F1E023C3F8002100BF70472F
:102180002DE9F05F80460D461646002702F03AFD25
:10219000074639462A46334601F00700C0F1070AD0
:1021A000BAF1040F02D94FF0040A01E0C0F1070AA6
:1021B000D14600F1040ABAF1070F02D24FF0000A2B
:1021C00001E0A0F1030AD4464FF0010A0AFA09FA25
:1021D000AAF1010A0AEA020A0AFA0CFA4FF0010B04
:1021E0000BFA0CFBABF1010B0BEA030B4AEA0B04F5
:1021F0002146404602F00EFDBDE8F09F00BF00F012
:102200000702064B19684FF6FF031940044B0B43B6
:1022100043EA0221014B196000BF70470CED00E05A
:102220000000FA0570B504460D460CB9012070BDDA
:102230005A48006800F00700A8420ED257480068CC
:1022400020F007002843554908600846006800F060
:102250000700A84201D00120E9E7207800F0020041
:1022600002281DD1207800F00400042805D14C4834
:10227000406840F4E0604A494860207800F0080077
:10228000082805D14648406840F4605044494860F9
:102290004348406820F0F000A16808434049486086
:1022A000207800F0010078B36068012806D13C482E
:1022B000006800F4003090B90120B8E76068022897
:1022C00006D13748006800F0007040B90120AEE741
:1022D0003348006800F0020008B90120A7E7304841
:1022E000406820F00300616808432D494860FFF70B
:1022F000BDFE064609E0FFF7B9FE801B41F28831BA
:10230000884202D9032092E707E02548406800F0A0
:102310000C006168B0EB810FEDD12048006800F03F
:102320000700A8420ED91D48006820F00700284386
:102330001A4908600846006800F00700A84201D06A
:10234000012074E7207800F00400042807D1144825
:10235000406820F4E060E168084311494860207853
:1023600000F00800082808D10D48406820F46050AB
:10237000216940EAC1000A49486000F03FF8084975
:102380004968C1F30311074A515CC8400649086017
:1023900006480068FFF790FE002048E70020024052
:1023A00000100240BE5F000810000020080000205E
:1023B00001480068704700001000002000B5FFF7DA
:1023C000F7FF04494968C1F30221034A515CC84040
:1023D00000BD000000100240CE5F000800B5FFF70E
:1023E000E7FF04494968C1F3C221034A515CC84070
:1023F00000BD000000100240CE5F000870B5002153
:102400000022002400230020134D696801F00C0510
:10241000F5B1042D02D0082D19D101E00F4819E0C3
:102420000F4DC1F38346AB5D01F4803555B10A4DC4
:102430006D68C5F340450B4E725D084D5D43B5FBBD
:10244000F2F402E0084D03FB05F4204602E000BF71
:10245000024800BF00BF70BD0010024000127A00A9
:10246000AC5F0008BC5F000800093D00F8B50446F9
:102470000CB90120F8BD207800F00100002878D0C8
:10248000F848406800F00C0004280CD0F54840687B
:1024900000F00C00082811D1F248406800F48030A8
:1024A000B0F5803F0AD1EF48006800F40030002802
:1024B0005FD0606800285CD10120DBE700BF606866
:1024C000B0F5803F06D1E748006840F48030E54928
:1024D000086028E0606858B9E248006820F480305D
:1024E000E04908600846006820F4802008601AE08F
:1024F0006068B0F5A02F0BD1DA48006840F4802066
:10250000D84908600846006840F4803008600AE056
:10251000D448006820F48030D2490860084600683A
:1025200020F48020086000BF606888B1FFF79EFD3E
:10253000054606E0FFF79AFD401B642801D90320F9
:1025400098E7C848006800F400300028F2D010E096
:10255000FFF78CFD054606E0FFF788FD401B642869
:1025600001D9032086E7BF48006800F40030002846
:10257000F2D1207800F00200022857D1B948406813
:1025800000F00C0050B1B748406800F00C0008287B
:1025900018D1B448406800F4803098B9B148006858
:1025A00000F0020020B12069012801D0012061E77C
:1025B000AC48006820F0F800616940EAC100A94910
:1025C000086033E02069E8B10120A7490860FFF7FF
:1025D0004DFD054606E0FFF749FD401B022801D9E5
:1025E000032047E79F48006800F002000028F2D06F
:1025F0009C48006820F0F800616940EAC1009949F0
:10260000086013E0002098490860FFF72FFD054699
:1026100006E0FFF72BFD401B022801D9032029E724
:102620009048006800F002000028F2D1207800F005
:10263000080008282DD1A069B8B101208B49086095
:10264000FFF714FD054606E0FFF710FD401B0228CA
:1026500001D903200EE78348406A00F002000028F9
:10266000F2D0012001F032FD13E000207F49086024
:10267000FFF7FCFC054606E0FFF7F8FC401B0228CC
:1026800001D90320F6E67748406A00F002000028EE
:10269000F2D1207800F00400042873D1002771489B
:1026A000C06900F0805070B900BF6E48C06940F04A
:1026B00080506C49C8610846C06900F080500090A5
:1026C00000BF00BF01276A48006800F48070B0B9FD
:1026D0006748006840F4807065490860FFF7C6FCF1
:1026E000054606E0FFF7C2FC401B642801D9032021
:1026F000C0E65F48006800F480700028F2D000BF98
:10270000E068012806D15748006A40F001005549A9
:10271000086227E0E06858B95248006A20F00100DA
:10272000504908620846006A20F00400086219E077
:10273000E06805280BD14B48006A40F00400494985
:1027400008620846006A40F0010008620AE0454855
:10275000006A20F00100434908620846006A20F040
:102760000400086200BFE068A0B1FFF77FFC0546E7
:1027700009E0FFF77BFC401B41F28831884202D917
:10278000032077E622E03748006A00F002000028C4
:10279000EFD012E0FFF76AFC054608E0FFF766FCA1
:1027A000401B41F28831884201D9032062E62D485E
:1027B000006A00F002000028F0D1012F05D129485D
:1027C000C06920F080502749C86100BFE069C8B3E4
:1027D0002448406800F00C00082860D0E069022816
:1027E00048D1002020490866FFF740FC054606E076
:1027F000FFF73CFC401B022801D903203AE61948A8
:10280000006800F000700028F2D1206AB0F5803F27
:1028100007D11448406820F40030A16808431149EA
:102820004860D4E9080108430E49496821F474114D
:1028300008430C49486001200B490866FFF716FC65
:10284000054607E03DE0FFF711FC401B022801D9D7
:1028500003200FE60348006800F000700028F2D063
:102860002FE000000010024000004242800442427B
:1028700000700040002014490866FFF7F7FB05468A
:1028800006E0FFF7F3FB401B022801D90320F1E526
:102890000E48006800F000700028F2D111E0E069F5
:1028A000012800D1E6E50948466806F48031206A2F
:1028B000814204D106F47011606A814201D0012086
:1028C000D8E50020D6E5000000004242001002409A
:1028D00070B504462546681EB0F1807F01D3012003
:1028E0000FE0681E4FF0E02148610F214FF0FF30EC
:1028F00002F090F900204FF0E02188610720086184
:10290000002070BD7047704730B502460B4600BFCF
:1029100092F83C00012801D1022030BD012082F84C
:102920003C0000BF022082F83D0010684468106837
:10293000816824F070041868044310684460144DE2
:102940001068A84213D0134D1068A8420FD0106829
:10295000B0F1804F0BD0104D1068A84207D00F4D3A
:102960001068A84203D00E4D1068A84205D121F08E
:1029700080015868014310688160012082F83D00A1
:1029800000BF002082F83C0000BF00BFC5E7000088
:10299000002C0140003401400004004000080040C9
:1029A000000C004010B504460CB9012010BD94F88D
:1029B0003D0028B9002084F83C00204600F026F8AD
:1029C000022084F83D00211D206801F003FD012054
:1029D00084F8460000BF84F83E0001213F200155E5
:1029E000402001554120015500BF00BF012084F85F
:1029F000420043200155442001554520015500BFA8
:102A0000012084F83D000020D0E7000038B50446DE
:102A10002349206888420DD100BF2248C06940F098
:102A200004002049C8610846C06900F00400009015
:102A300000BF34E01C492068884216D100BF194805
:102A4000C06940F010001749C8610846C06900F02D
:102A50001000009000BF00BF002203213620FFF7C6
:102A60008FFB3620FFF77CFB19E010492068884275
:102A700015D100BF0B48C06940F020000949C8616A
:102A80000846C06900F02000009000BF00BF00228F
:102A900001213720FFF774FB3720FFF761FB38BDBA
:102AA00000080040001002400010004000140040E8
:102AB000014691F83D00012801D001207047022015
:102AC00081F83D000868C06840F001000B68D860DC
:102AD000164B0868984213D0154B086898420FD0DF
:102AE0000868B0F1804F0BD0124B0868984207D0AD
:102AF000114B0868984203D0104B086898420CD1DB
:102B00000868806800F00702062A0CD00868006890
:102B100040F001000B68186005E00868006840F0AC
:102B200001000B6818600020C8E70000002C01407D
:102B3000003401400004004000080040000C004048
:102B40002DE9F04104460D46002700BF94F83C00F3
:102B5000012802D10220BDE8F081012084F83C0068
:102B600000BF022084F83D002068866826F07706C2
:102B700026F47F46206886602868502833D00CDC15
:102B8000202850D004DC00284BD0102851D149E037
:102B9000302849D040284CD139E060282DD0702809
:102BA00007D0B0F5805F03D0B0F5005F41D10DE0F4
:102BB00041E0D5E902136A68206801F06AFC2068E8
:102BC000866846F077062068866034E0D5E902130F
:102BD0006A68206801F05DFC2068806840F48040ED
:102BE0002168886027E0EA686968206801F042FD92
:102BF0005021206801F058FC1DE0EA6869682068EF
:102C000001F04BFD6021206801F04EFC13E0EA6802
:102C10006968206801F02EFD4021206801F044FC25
:102C200009E000BF00BF00BF2968206801F03CFC3C
:102C300001E0012700BF00BF012084F83D0000BF74
:102C4000002084F83C0000BF384684E72DE9F041BD
:102C500004460D4614B90120BDE8F08194F83D000A
:102C600028B9002084F83C00204600F051F80220EA
:102C700084F83D002068806844F207018843216899
:102C80008860211D206801F0A5FB2068D0F808802D
:102C9000206886692068076A286840EA080840F2C8
:102CA00003308643A969A86840EA0120064340F63C
:102CB0000C4086434FF2F0008643E969E86840EA39
:102CC0000120064328690001296A40EA01300643D1
:102CD00027F022076969686840EA01100743206805
:102CE000C0F808802068866120680762012084F8A7
:102CF000460084F83E0001213F200155012084F860
:102D0000420043200155012084F83D000020A3E744
:102D100010B586B004460020029003900490059000
:102D20002E49206888422ED100BF2D48C06940F04E
:102D300002002B49C8610846C06900F002000190FA
:102D400000BF00BF00BF0846806940F008008861EE
:102D50000846806900F00800019000BF00BF3020E5
:102D6000029000200390049002A91E48FEF7CEFFB7
:102D700000BF1D49486820F4406040F0E06040F426
:102D80000060486027E019492068884223D100BFCD
:102D90001348806940F400501149886108468069F1
:102DA00000F40050019000BF00BF00BF08468069DA
:102DB00040F0100088610846806900F01000019022
:102DC00000BF00BFC020029000200390049002A921
:102DD0000748FEF79BFF06B010BD0000000400404E
:102DE00000100240000C014000000140003401408E
:102DF000001001402DE9F04304460D4694F83E6072
:102E00003F20075D94F84280432010F804906DB98C
:102E1000012E02D1B8F1010F02D00120BDE8F083EC
:102E2000022084F83E0084F8420025E0042D0CD1F5
:102E3000012F02D1B9F1010F01D00120EEE70221EB
:102E40003F2001554320015516E0012E07D1012FE7
:102E500005D1B8F1010F02D1B9F1010F01D0012064
:102E6000DCE7022084F83E0002213F2001550220C9
:102E700084F842004320015515B1042D0CD105E022
:102E800001220021206801F0F3FA10E00122042160
:102E9000206801F0EDFA0AE001220021206801F02B
:102EA000E7FA01220421206801F0E2FA00BF00BF26
:102EB0002068006840F00100216808600020ADE74C
:102EC000704710B5044620680069C0F34000D8B1CF
:102ED0002068C068C0F34000B0B16FF00200216804
:102EE0000861012020772068806900F0030018B194
:102EF0002046FFF7E5FF05E0204600F0D9F8204620
:102F000000F08DF90020207720680069C0F3800070
:102F1000D8B12068C068C0F38000B0B16FF0040081
:102F200021680861022020772068806900F44070E1
:102F300018B12046FFF7C4FF05E0204600F0B8F8BE
:102F4000204600F06CF90020207720680069C0F36B
:102F5000C000D8B12068C068C0F3C000B0B16FF045
:102F6000080021680861042020772068C06900F00B
:102F7000030018B12046FFF7A3FF05E0204600F04C
:102F800097F8204600F04BF9002020772068006970
:102F9000C0F30010D8B12068C068C0F30010B0B111
:102FA0006FF0100021680861082020772068C06950
:102FB00000F4407018B12046FFF782FF05E020467C
:102FC00000F076F8204600F02AF9002020772068EB
:102FD000006900F0010058B12068C06800F00100ED
:102FE00030B16FF0010021680861204600F092F9CD
:102FF00020680069C0F3C01058B12068C068C0F3F1
:10300000C01030B16FF08000216808612046FFF7E2
:1030100079FC20680069C0F3801058B12068C0684E
:10302000C0F3801030B16FF0400021680861204685
:1030300000F0A2FA20680069C0F3401058B120687F
:10304000C068C0F3401030B16FF020002168086103
:103050002046FFF758FC10BD10B586B0044600208E
:1030600002900390049005900E492068884217D181
:1030700000BF0D48806940F008000B498861084690
:10308000806900F00800019000BF00BF4FF440705D
:10309000029002200390059002A90448FEF736FE34
:1030A00006B010BD0008004000100240000C0140B6
:1030B00070472DE9F04104460D461646002700BF33
:1030C00094F83C00012802D10220BDE8F0810120E3
:1030D00084F83C0000BF36B1042E1BD0082E31D03E
:1030E0000C2E5ED145E02946206801F0E7F9206802
:1030F000806940F00800216888612068806920F0BC
:103100000400216888612068806929690843216872
:10311000886148E02946206801F008FA2068806943
:1031200040F40060216888612068806920F4806034
:103130002168886120688069296940EA0120216846
:10314000886130E02946206801F02EFA2068C069C5
:1031500040F008002168C8612068C06920F00400C0
:103160002168C8612068C069296908432168C8616D
:1031700019E02946206801F053FA2068C06940F43C
:1031800000602168C8612068C06920F480602168FF
:10319000C8612068C069296940EA01202168C861C6
:1031A00001E0012700BF00BF00BF002084F83C0001
:1031B00000BF384689E710B504460CB9012010BDA0
:1031C00094F83D0028B9002084F83C00204600F027
:1031D00025F8022084F83D00211D206801F0FAF84E
:1031E000012084F8460000BF84F83E0001213F2002
:1031F0000155402001554120015500BF00BF01206D
:1032000084F84200432001554420015545200155D2
:1032100000BF012084F83D000020D0E770477047D0
:1032200070B504460D4615B994F83E000BE0042D28
:1032300002D13F20005D06E0082D02D14020005D54
:1032400001E04120005D012801D0012070BD1DB9C1
:10325000022084F83E000EE0042D03D102213F201D
:10326000015508E0082D03D102214020015502E05C
:1032700002214120015501222946206801F0F8F879
:103280001F492068884203D01E492068884201D126
:10329000012000E0002028B12068406C40F400408C
:1032A0002168486416492068884213D0154920686F
:1032B00088420FD02068B0F1804F0BD012492068AF
:1032C000884207D011492068884203D010492068FD
:1032D00088420CD12068806800F00706062E0CD0CA
:1032E0002068006840F001002168086005E020685F
:1032F000006840F00100216808600020A6E7000097
:10330000002C01400034014000040040000800404F
:10331000000C00402DE9F04FA1B08246794882456B
:103320007ED17948D0F800B0FEF758F97748B0F967
:103330000000FDF752FB1D90FDF771FB0022744B5E
:10334000CDE91E01FDF768FA06460022714BFDF734
:1033500063FA80460022704BFDF7D0FA0446FDF771
:10336000A1FB6E4908606E48B0F90000FDF735FB1F
:103370001D90FDF754FB0022654BCDE91E01FDF7C2
:103380004BFA80460022634BFDF746FA06460022C0
:10339000614BFDF7B3FA0446FDF784FB6149086011
:1033A00061480068FDF719FB05466049FDF7F6F92D
:1033B00004465F49FDF7C0F95E4908605E48006851
:1033C000FDF70BFB05465949FDF7E8F90446584956
:1033D000FDF7B2F959490860084601685548006888
:1033E000FDF752F904464FF08041FDF7D7F95449F3
:1033F0000860FDF76BFF53480068FDF7F7FA04B269
:1034000051480068FDF7F2FA05B22146284600F05F
:1034100025FE4E480078002869D14D48006800E03C
:1034200066E0FDF7FCFA04460D464A480068FDF7E1
:10343000F6FA06460F464849D1F8BC00FDF7EFFA08
:10344000804689463E480068FDF7E9FACDE91E014D
:103450003A480068FDF7E3FACDE91C0135480068F9
:10346000FDF7DDFACDE91A013B49086FFDF7D7FA00
:10347000CDE918013849486AFDF7D1FACDE91601BE
:1034800028480068FDF7CBFACDE91401234800680D
:10349000FDF7C5FACDE90C89CDE90E67CDE91045F8
:1034A000CDE91201DDE91E01CDE90A01DDE91C01CA
:1034B000CDE90801DDE91A01CDE90601DDE91801D0
:1034C000CDE90401DDE91601CDE90201DDE91401D0
:1034D000CDE900012148DDE9122301F083FB0A4810
:1034E0000068ABEB000B59461DA001F07BFB06E02A
:1034F0001F48824503D104211E48FEF7A7FD21B0D5
:10350000BDE8F08F60010020000000206C0000206A
:1035100000408F4000004E400078DE401C0000203C
:103520006E00002020000020640000200000C34442
:103530005F46714124000020680000202800002020
:103540002C000020400000203C000020480000200B
:1035500018000020140000207C02002018600008E1
:1035600073656E7420696E2025646D730D0A00000A
:1035700018010020001401407047F8B504460E46BB
:10358000174694F8420020282ED106B10FB9012029
:10359000F8BD01202063002060633A463146204692
:1035A00001F082FA0546EDB9206B012819D100BF60
:1035B000002000902068006800902068406800901B
:1035C00000BF00BF00BF00BF21680C3151E8001FE1
:1035D00041F0100021680C3141E80002002AF3D1CB
:1035E00000E001252846D3E70220D1E72DE9F0418C
:1035F00007460C463548008835490880354800881C
:1036000035490988884208DC3348008831490988EF
:10361000401AC0F1800086B205E02E4800882E498D
:103620000988401A86B22A4800882044802819DD7B
:1036300027480088C0F1800085B22849244A1288B2
:1036400088182A462649FCF79FFD0020204908805B
:10365000621B234841192148FCF796FD601B1B495A
:1036600008800CE01D491A4A1288881822461C4915
:10367000FCF78AFD16480088204414490880134846
:10368000008815490880A6420DDA01201549087006
:1036900011480088401C0F4908800846008880288F
:1036A00001D10020088040220D490F48FFF765FF37
:1036B0000E480068006820F004000C4909680860A2
:1036C00001200B490870BDE8F08100007A0000205D
:1036D000780000207C0000207E00002000050020F3
:1036E000C004002081000020F001002038020020EA
:1036F00080000020704700002DE9F84F0446206844
:1037000005682068C668206847694FF00009CA4606
:1037100005F00F09B9F1000F0AD105F0200038B10A
:1037200006F0200020B1204601F0C2F8BDE8F88F75
:10373000B9F1000F7BD007F0010018B906F49070C2
:10374000002874D005F0010030B106F4807018B183
:10375000606C40F00100606405F0040030B107F0D7
:10376000010018B1606C40F00200606405F00200D6
:1037700030B107F0010018B1606C40F004006064E3
:1037800005F0080048B106F0200010B907F001006C
:1037900018B1606C40F008006064606C002845D08F
:1037A00005F0200028B106F0200010B1204601F0FD
:1037B0007FF820684069C0F3801A606C00F0080050
:1037C00010B9BAF1000F2CD0204601F018F820688B
:1037D000406900F0400000B300BF00BF2168143111
:1037E00051E8001F21F040002168143141E8000237
:1037F000002AF3D100BFE06B50B17748E16B48631A
:10380000E06BFDF74FFF88B1E06B416B88470DE03F
:103810002046FFF76FFF09E009E02046FFF76AFF47
:1038200004E02046FFF766FF002060647EE7206B1F
:10383000012877D105F01000002873D006F01000A1
:103840000028FAD000BF0020009020680068009097
:1038500020684068009000BF00BF2068406900F009
:10386000400000285FD0E06B006840681FFA80F8D5
:10387000B8F1000F55D0A08D404552DDA4F82E8040
:10388000E06B8069202843D000BF00BF21680C3165
:1038900051E8001F21F4807021680C3141E80002DA
:1038A000002AF3D100BF00BF00BF2168143151E8E6
:1038B000001F21F001002168143141E80002002AB4
:1038C000F3D100BF00BF00BF2168143151E8001FD1
:1038D00021F040002168143141E80002002AF3D1B0
:1038E00000BF202084F842000020206300BF00BFFA
:1038F00021680C3151E8001F21F0100021680C31C3
:1039000041E80002002AF3D100BFE06BFDF79FFE03
:1039100002206063A08DE28D801A81B22046FFF7FD
:1039200065FE03E742E0A08DE18D401A1FFA80F8A2
:10393000E08DD0B3B8F1000F37D000BF00BF2168D1
:103940000C3151E8001F21F4907021680C3141E8DE
:103950000002002AF3D100BF00BF00BF216814316C
:1039600051E8001F21F001002168143141E80002F4
:10397000002AF3D100BF202084F8420000202063F9
:1039800000BF00BF21680C3151E8001F21F010007A
:1039900021680C3141E80002002AF3D100BF022067
:1039A000606341462046FFF721FEBFE605F0800038
:1039B00030B106F0800018B1204601F0D9F8B5E624
:1039C00005F0400030B106F0400018B1204600F08C
:1039D0004CFFABE600BFA9E6C346000810B504469D
:1039E0000CB9012010BDA06900B100E000BF94F83F
:1039F000410028B9002084F84000204600F02AF851
:103A0000242084F841002068C06820F40050216818
:103A1000C860204600F0CAFF2068006920F490408A
:103A2000216808612068406920F02A002168486107
:103A30002068C06840F400502168C86000206064BD
:103A4000202084F8410084F842000020606300BF19
:103A5000C8E7000010B586B004460020029003902D
:103A6000049005902A49206888424FD100BF294818
:103A7000806940F48040274988610846806900F4E5
:103A80008040019000BF00BF00BF0846806940F041
:103A9000040088610846806900F00400019000BFBE
:103AA00000BF48150290022003900320059002A950
:103AB0001948FEF72BF94FF4806002900020039024
:103AC000049002A91448FEF721F91448144908602B
:103AD000002048600021124881608021C1600021DF
:103AE000016141618161C161FEF77CF808B1FDF7B8
:103AF000ABFD00BF0A48E063446200BF00221146EC
:103B00002520FEF73DFB2520FEF72AFB06B010BD61
:103B100000380140001002400008014058000240F7
:103B20003802002070477047704700BFFEE7000072
:103B300008B500BF0A48406940F0010008494861E3
:103B40000846406900F00100009000BF00BF00225D
:103B500011460F20FEF714FB0F20FEF701FB08BDF6
:103B60000010024000B585B0002001900290039043
:103B7000049000BF3448806940F0200032498861D9
:103B80000846806900F02000009000BF00BF00BF21
:103B90000846806940F0080088610846806900F0A6
:103BA0000800009000BF00BF00BF0846806940F0D9
:103BB000100088610846806900F01000009000BF86
:103BC00000BF00BF0846806940F0040088610846D5
:103BD000806900F00400009000BF00BF00220321B4
:103BE0001A48FEF73DFA00224FF440711848FEF7DC
:103BF00037FA012204211748FEF732FA0320019018
:103C00000120029002200390049001A90F48FEF7C2
:103C10007DF84FF440700190012002900020039045
:103C20000220049001A90A48FEF770F804200190D0
:103C30000120029003900220049001A90548FEF79C
:103C400065F805B000BD000000100240000C014006
:103C5000001001400014014000B58BB0242102A8DF
:103C6000FCF7ABFA00200090019019481949086050
:103C7000002048600021174881604FF6FF71C16045
:103C80000021016181610320029000200390012046
:103C90000490002005900420069000200790012049
:103CA00008900020099004200A9002A90948FEF714
:103CB000CDFF08B1FDF7C8FC0020009001906946D7
:103CC0000448FEF721FE08B1FDF7BEFC0BB000BDB5
:103CD000000400408800002000B58DB0002009904D
:103CE0000A900B900C90079008901C216846FCF7F6
:103CF00064FA2448244908600020486000212248D2
:103D0000816040F2FF71C160002101618021816109
:103D1000FEF748FE08B1FDF797FC4FF4805009907C
:103D200009A91948FEF70CFF08B1FDF78DFC1648EC
:103D3000FFF741FA08B1FDF787FC002007900890D3
:103D400007A91148FEF7E0FD08B1FDF77DFC6020F2
:103D500000900020019002900490082269460A48D1
:103D6000FFF7A7F908B1FDF76FFC0C22694606487A
:103D7000FFF79FF908B1FDF767FC0348FFF76CF9FF
:103D80000DB000BD00080040D00000201CB5002090
:103D9000009001900E480F49086041F61F404860AE
:103DA00000210C48816042F20F71C1608021816165
:103DB000FEF7F8FD08B1FDF747FC002000900190E8
:103DC00069460448FEF7A0FD08B1FDF73DFC1CBDA7
:103DD00000100040180100201CB500200090019048
:103DE0000E480F49086041F61F40486000210C480A
:103DF0008160C721C16080218161FEF7D3FD08B1D8
:103E0000FDF722FC00200090019069460448FEF76F
:103E10007BFD08B1FDF718FC1CBD0000001400403C
:103E20006001002000B58BB0242102A8FCF7C5F981
:103E30000020009001901A481A490860002048604C
:103E40000021184881604FF6FF71C16000210161B7
:103E500041618161032002900020039001200490C1
:103E60000020059004200690002007900120089073
:103E70000020099004200A9002A90A48FEF7E6FEF5
:103E800008B1FDF7E1FB002000900190694605486C
:103E9000FEF73AFD08B1FDF7D7FB0BB000BD0000FF
:103EA00000340140A801002010B50B480B49086000
:103EB0004FF461204860002108488160C1600161C1
:103EC0000C21416100218161C161FFF787FD08B1CB
:103ED000FDF7BAFB10BD000000380140F0010020E2
:103EE00000BFFEE770B505460C4655BB2E48047072
:103EF000007820B101280DD0022821D115E0002240
:103F000002212A48FEF7ACF8002201212748FEF7DB
:103F1000A7F815E0002202212448FEF7A1F80122AB
:103F200011462248FEF79CF80AE0002201211F48B2
:103F3000FEF796F8012202211C48FEF791F800BF17
:103F400030E0012D2ED11A480470007820B10128EC
:103F50000FD0022825D118E000224FF40071154837
:103F6000FEF77EF800224FF480711248FEF778F8D1
:103F700017E000224FF400710E48FEF771F801229D
:103F800011020C48FEF76CF80BE000224FF4807130
:103F90000848FEF765F8012251020648FEF760F86E
:103FA00000BF00BF70BD000072000020000C014087
:103FB000730000200010014030B9084A11801288B7
:103FC000074B1B68DA6307E0012805D1054A118019
:103FD0001288034B1B681A647047000074000020AD
:103FE000D00000207600002010B50446ACB90120B6
:103FF00015490870002201211448FEF731F800220B
:1040000002211248FEF72CF8002011490968C86304
:1040100008210F48FFF704F915E001200D49087049
:10402000002201020C48FEF71BF800224FF4007139
:104030000948FEF715F800200549096808640C21B5
:104040000348FFF7EDF810BD70000020000C0140A0
:10405000D0000020710000200010014070B504461F
:104060000D46002C04DB01210020FFF73BFF05E09B
:10407000604204B202210020FFF734FF40F2E170F9
:10408000844200DD00E020460446002D04DB0121CF
:104090000846FFF727FF05E0684205B2022101202C
:1040A000FFF720FF40F2E170854200DD00E0284686
:1040B0000546A1B20020FFF77FFFA9B20120FFF75C
:1040C0007BFF70BD00BFFEE77047000008B50849E0
:1040D0000968C9084FF47A72B1FBF2F141430091CB
:1040E00000BF00BF00994A1E00920029F9D108BD07
:1040F0001000002010B540210E48FCF75EF880212A
:104100000D48FCF75AF800200C4908800C4908803B
:104110000C4908800C490880402206490B48FFF7EB
:104120002CFA0B480068006820F004000849096870
:10413000086010BDC0040020000500207E000020A3
:104140007C000020780000207A000020F001002090
:10415000380200202DE9F04F85B082460E46174602
:104160000020614908706148007818B9012005B045
:10417000BDE8F08F5E48B0F8008000255D480488F7
:104180005046FCF72FF880B204903046FCF72AF82E
:1041900080B20390002002908146019000BF0AE0A7
:1041A000601C84B2802C00DB0024444503D100F065
:1041B000A5F80120DBE75048005D1AF80510884299
:1041C000EED10294002517E0802C00DB002444454A
:1041D00003D100F093F80120C9E74748005D1AF8C1
:1041E0000510884204D00298401C84B20025D6E70E
:1041F000601C84B2681C85B204988542E4DBA14649
:10420000002500BF0AE0601C84B2802C00DB002483
:10421000444503D100F072F80120A8E73648005D5C
:10422000715D8842EFD10294002516E0802C00DBFE
:104230000024444503D100F061F8012097E72E489F
:10424000005D715D884204D00298401C84B2002554
:10425000D8E7601C84B2681C85B203988542E5DB10
:104260000398201A80B201900198A0EB09001FFA70
:1042700080FB204800881E490988884209DC1E48C6
:1042800000EB09015A463846FBF77EFF19480480C7
:1042900015E000200090C9F1800080B2009016481F
:1042A00000EB09013846009AFBF76EFF0099781879
:1042B0001149019AFBF768FF0E48048000BF0020F7
:1042C00007F80B000B48008809490988884201D18A
:1042D00000F014F80448007820B10020024908706A
:1042E000012044E7002042E78100002080000020F8
:1042F0007E0000207C0000200005002000200649F0
:104300000880064908800649088006490880064951
:1043100008700649087070477E0000207C0000206D
:10432000780000207A00002080000020810000201A
:104330007047000010B5FDF79FFE03480068401E5F
:104340000149086010BD00000000002000B58FB0DA
:10435000282105A8FBF731FF14216846FBF72DFF44
:10436000012005900004069000200790012009908C
:1043700002200C90C1030D914FF4E0110E9105A89D
:10438000FEF774F808B1FDF75FF90F2000900220E6
:104390000190002002904FF4806003900020049070
:1043A00002216846FDF73EFF08B1FDF74DF90FB059
:1043B00000BD704710B50248FEF783FD10BD000038
:1043C0001801002010B50248FEF77BFD10BD00006B
:1043D0006001002010B50268204B98420ED0204B9F
:1043E00098420BD0B0F1804F08D01E4B984205D0B8
:1043F0001D4B984202D01D4B984203D122F070020F
:104400004B681A43154B98420ED0154B98420BD06F
:10441000B0F1804F08D0134B984205D0124B984210
:1044200002D0124B984203D122F44072CB681A4357
:1044300022F080034C6943EA040202608B68C36285
:104440000B688362054B984202D0054B984201D11C
:104450000B6903630123436110BD0000002C014080
:10446000003401400004004000080040000C0040FF
:1044700030B501F01F05012404FA05F3046A9C43DA
:104480000462046A01F01F0502FA05F52C43046278
:1044900030BD30B50C46816821F47F4142EA0325E6
:1044A00025432943816030BD0A46816821F07001AF
:1044B00042F00703194381607047000030B5026A7B
:1044C000056A25F0010505624368846924F07004DB
:1044D00024F003040D682C4322F002028D682A4365
:1044E000104DA84200D103E00F4DA84206D100BFF5
:1044F00022F00802CD682A4322F00402094DA842A6
:1045000002D0094DA84207D123F4807323F400732D
:104510004D692B438D692B43436084614D6845632E
:10452000026230BD002C01400034014030B5026A07
:10453000056A25F0100505624368846924F4E044A7
:1045400024F440740D6844EA052422F020028D68AA
:1045500042EA0512124DA84200D103E0114DA842D3
:1045600007D100BF22F08002CD6842EA051222F096
:1045700040020B4DA84202D00A4DA84209D123F4B3
:10458000806323F400634D6943EA85038D6943EA40
:104590008503436084614D688563026230BD00001D
:1045A000002C01400034014030B5026A056A25F450
:1045B000807505624368C46924F0700424F0030424
:1045C0000D682C4322F400728D6842EA0522124DD8
:1045D000A84200D103E0114DA84207D100BF22F448
:1045E0000062CD6842EA052222F480620A4DA842A8
:1045F00002D00A4DA84209D123F4805323F400537A
:104600004D6943EA05138D6943EA05134360C461AC
:104610004D68C563026230BD002C0140003401408A
:1046200030B5036A056A25F4805505624468C2699D
:1046300022F4E04222F440720D6842EA052223F49B
:1046400000538D6843EA0533084DA84202D0084D57
:10465000A84204D124F480444D6944EA851444609E
:10466000C2614D680564036230BD0000002C01404A
:104670000034014030B50B461446026A056A25F045
:1046800001050562816921F0F00141EA041122F07F
:104690000A021A438161026230BD30B50B461446EE
:1046A000026A056A25F010050562816921F47041EE
:1046B00041EA043122F0A00242EA0312816102625F
:1046C00030BD70B505466C6A0020E085E084204668
:1046D000FFF710F870BD70B506460025746A2068B3
:1046E0004069C0F3C01594F84100212805D125B1D7
:1046F0000020E084204600F0C8F820684069C0F33C
:10470000801594F84200222805D125B10020E085CB
:10471000204600F074F8606C40F0100060642046A1
:10472000FEF7E8FF70BD70B505466C6A2868006842
:1047300000F02000002842D1E08500BF00BF2168C2
:104740000C3151E8001F21F4807021680C3141E8E0
:104750000002002AF3D100BF00BF00BF216814315E
:1047600051E8001F21F001002168143141E80002E6
:10477000002AF3D100BF00BF00BF2168143151E807
:10478000001F21F040002168143141E80002002A96
:10479000F3D100BF202084F84200206B01280ED105
:1047A00000BF00BF21680C3151E8001F21F010004C
:1047B00021680C3141E80002002AF3D100BF00203B
:1047C0006063206B012804D1A18D2046FEF70EFF07
:1047D00002E02046FFF7A6F970BD70B505466C6A89
:1047E00001206063206B012805D1A08D410820467F
:1047F000FEF7FCFE02E02046FFF795F970BD00BF12
:1048000000BF02680C3252E8002F22F49071026857
:104810000C3242E80013002BF3D100BF00BF00BFF1
:104820000268143252E8002F22F0010102681432AB
:1048300042E80013002BF3D100BF016B01290ED118
:1048400000BF00BF02680C3252E8002F22F01001B6
:1048500002680C3242E80013002BF3D100BF202184
:1048600080F8421000210163704710B504462068AB
:10487000C06820F040002168C860202084F8410012
:104880002046FFF751F9002010BD00BF00BF0268AD
:104890000C3252E8002F22F0C00102680C3242E8CC
:1048A0000013002BF3D100BF202180F84110704786
:1048B000F8B5044694F84200222875D1A068B0F5F6
:1048C000805F0CD1206950B90025A66A2068406835
:1048D000C0F308003080A06A801CA06215E0A56AC1
:1048E0000026A068B0F5805F03D0A06828B92069D1
:1048F00018B920684068287004E02068406800F01B
:104900007F002870A06A401CA062E08D401E80B22B
:10491000E085002846D12068C06820F0200021688A
:10492000C8602068C06820F480702168C860206872
:10493000406920F0010021684861202084F842008D
:1049400000206063206B012826D10020206300BF77
:1049500000BF21680C3151E8001F21F010002168D0
:104960000C3141E80002002AF3D100BF2068006842
:1049700000F0100010280AD100BF0020009020682D
:104980000068009020684068009000BF00BFA18DC3
:104990002046FEF72BFE02E02046FFF7C3F800207A
:1049A000F8BD01E00020FBE70220F9E770B50446FE
:1049B0002168096921F44051E268114322681161BC
:1049C0002269A1681143626941EA02052168C96848
:1049D00041F20C62914329432268D1602168496900
:1049E00021F44071A2691143226851612D4A216866
:1049F000914202D1FDF7F2FC01E0FDF7DFFC00EB94
:104A0000C00101EB001162689200B1FBF2F100EB12
:104A1000C00202EB001263689B00B2FBF3F2642356
:104A2000B2FBF3F202EBC20303EB0212A1EB820131
:104A3000322202EB01116422B1FBF2F101F0F0012C
:104A400000EBC00202EB001263689B00B2FBF3F2C2
:104A50006423B2FBF3F201EB021200EBC00101EBA5
:104A6000001163689B00B1FBF3F100EBC00303EBA3
:104A700000136668B600B3FBF6F36426B3FBF6F3E7
:104A800003EBC30606EB0313A1EB8301322303EB15
:104A900001116423B1FBF3F101F00F01114422680D
:104AA000916070BD0038014077B581B0044615466D
:104AB0000298A062A58500206064222084F842004C
:104AC0002848E16B88622848E16BC8622748E16B9F
:104AD00008630020E16B486302AE32682368191D49
:104AE0002B46E06BFDF7C4F800BF00200090206863
:104AF0000068009020684068009000BF00BF2069F7
:104B000070B100BF00BF21680C3151E8001F41F4B3
:104B1000807021680C3141E80002002AF3D100BF07
:104B200000BF00BF2168143151E8001F41F00100AF
:104B30002168143141E80002002AF3D100BF00BF10
:104B400000BF2168143151E8001F41F04000216886
:104B5000143141E80002002AF3D100BF002004B064
:104B600070BD000027470008DB470008D746000853
:104B7000014691F84100212828D18868B0F5805F6E
:104B80000BD1086948B90A6A1088C0F308000B689D
:104B90005860086A801C086205E00B6A581C0862AD
:104BA00018780B685860C88C401E80B2C88458B909
:104BB0000868C06820F080000B68D8600868C0688A
:104BC00040F040000B68D860002070470220FCE7EE
:104BD00010B50248FEF790FD10BD0000F001002066
:104BE00000BFFEE70FB4054B10B503A9044A0298B5
:104BF00000F0FEF810BC5DF814FB0000315900080D
:104C00008400002002480068C0F3022070470000C2
:104C10000CED00E010B5002804DB0A07130E054A6E
:104C2000135406E00A07140E034A00F00F031B1F7B
:104C3000D45410BD00E400E018ED00E002E008C824
:104C4000121F08C1002AFAD170477047002001E006
:104C500001C1121F002AFBD1704700002DE9FF5F40
:104C600082B00021DDE90430020DDDF840B00343DD
:104C700018D044F61050A2F2FF3242431514119896
:104C800001281FD0A5EB0B00401C5FEA000A4FF083
:104C900000064E4FDFF83891B046504615D5CAF1A0
:104CA000000413E0119801244AA3012801D16FEAFE
:104CB0000B010298119AC0E90031C0E9024206B026
:104CC000BDE8F09FCBF10000DFE704460021404A39
:104CD000491842EB0450CDE9001012E0E00707D07C
:104CE00032463B4640464946FBF796FD804689469C
:104CF00032463B4610461946FBF78EFD06460F46E8
:104D00006410002CEAD1DDE90401DDE90023BAF1E9
:104D1000000F06DAFBF780FD42464B46FBF77CFDB1
:104D200005E0FBF7EBFD42464B46FBF7E7FD04468B
:104D30000E460022284BFBF79DFE03D84FF0FF30B4
:104D4000014607E00022254B20463146FBF7EAFFEB
:104D5000FCF79BF8102409E0002C0ADB0A22002350
:104D6000FBF7E6FE039B30321A55641E50EA01023F
:104D7000F2D1641C039AC4F111031444119A012A5C
:104D800003D0012208430DD10AE0084304D00020DB
:104D90004FF0110B119072E7A3EB0B056D1E0DE0A8
:104DA0005B4504DD4FF0000205F1010504E003DA84
:104DB0004FF00002A5F10105002AECD002981199EC
:104DC000C0E90231C0E9004579E700000000144065
:104DD0000000F03F300000000000F0430000E03F22
:104DE00030380A2801D201207047002070470000A7
:104DF0002DE9FF4F95B09B468946064600250FE2F8
:104E0000252877D100242746F84A0121059400E09F
:104E1000044316F8013F203B01FA03F01042F7D19A
:104E200030782A2811D06FF02F033078A0F13002AB
:104E3000092A16D8059A44F0020402EB820203EB19
:104E400042021044761C0590EFE759F8042B0592B6
:104E5000002A03DA504244F40054059044F002045E
:104E6000761C30782E2816D116F8010F44F0040471
:104E70002A280DD06FF02F023078A0F13003092BD3
:104E800009D807EB870302EB4303C718761CF3E747
:104E900059F8047B761C30786C280FD006DC4C283F
:104EA00017D068280DD06A2814D104E0742810D0D7
:104EB0007A280FD10DE044F400140AE044F4801481
:104EC00001E044F440147278824202D104F5801467
:104ED000761C761C307866280BD013DC582877D0E7
:104EE00009DC002875D04528F6D04628F4D047289C
:104EF0001AD19DE118E0632835D0642879D065285F
:104F000012D195E1702873D008DC6728F1D06928A8
:104F10006FD06E280DD06F2806D1B5E073282CD045
:104F2000752875D0782874D05A46179990476D1C0B
:104F300075E1C4F30250022809D003280DD0D9F836
:104F4000001004280DD00D6009F1040967E1D9F8BB
:104F50000010EA17C1E90052F6E7D9F800100D80F9
:104F6000F2E70D70F0E719F8041B8DF8001000202F
:104F70008DF80100EA46012003E059F804AB4FF038
:104F8000FF3061074FF0000102D40DE008F101018C
:104F90008846B9420FDA8045F8DB1AF80810002974
:104FA000F4D108E008F1010188468142FADB1AF8E1
:104FB00008100029F6D105985B46A0EB08072146AA
:104FC0003846179A00F094FA284400EB080507E0E9
:104FD0004DE029E10DE01AF8010B5A461799904768
:104FE000B8F10108F7D25B4621463846179A13E11B
:104FF00042E00A220092C4F302524FF0000A022A51
:1050000008D059F804CB032A4FEAEC710AD00DE01E
:1050100029E02AE009F1070121F00702F2E802C1C4
:10502000914609E00FFA8CFC4FEAEC71042A03D197
:105030004FFA8CFC4FEAEC71002907DA0A4600218E
:10504000DCF1000C61EB02012D2202E0220504D507
:105050002B228DF80420012203E0E20701D0202258
:10506000F7E7904659E00A2102E010220DE01021F6
:105070004FF0000A00910BE010224FF0000A44F0BC
:1050800004040827009203E008224FF0000A00926F
:10509000C4F30252022A05D059F804CB0021032A96
:1050A00008D009E009F1070121F00702F2E802C186
:1050B000914605E01FFA8CFC042A01D10CF0FF0C8C
:1050C0004FF00008220728D5702806D0009B83F0F7
:1050D000100353EA0A0305D00EE040228DF80420A5
:1050E000012208E05CEA010206D030228DF804209B
:1050F0008DF8050002229046009B83F0080353EAD6
:105100000A030AD15CEA010201D1620705D5302207
:105110008DF804204FF001087F1E582804D034A0D9
:1051200003900EA802900DE036A0F9E753466046C2
:10513000009AFBF7FDFC84460398825C0298401EAF
:10514000029002705CEA0100F0D1029806A9081AE8
:1051500000F1200A600702D524F4803400E0012722
:10516000574502DDA7EB0A0000E0002000EB0A0132
:10517000009005984144401A0590E00306D45B4630
:105180002146179A059800F0B3F90544002706E078
:1051900001A85A46C05D179990476D1C7F1C474572
:1051A000F6DBE0030CD55B462146179A059800F024
:1051B0009FF9054404E030205A46179990476D1C2A
:1051C0000099481E00900029F5DC08E00298029939
:1051D0005A460078491C0291179990476D1CBAF104
:1051E0000001AAF1010AF1DC65E1000009280100D3
:1051F000303132333435363738396162636465664D
:10520000000000003031323334353637383941420E
:10521000434445460000000000F058F90544761C60
:10522000307800287FF4ECAD19B02846BDE8F08F47
:10523000620700D4062709F1070222F0070CFCE8F8
:105240000223E14603F000485FEA080C02D00FF2A7
:10525000702C0DE05FEA045C02D50FF2682C07E0C9
:105260005FEAC47C02D00FF2602C01E0AFF2700C58
:105270004FF0FF3823F00043CDF850C065280CD024
:1052800006DC452809D046281DD047283DD13DE001
:10529000662818D067287ED138E00021112F01DB65
:1052A000112000E0781CCDE9000106A90EA8FFF747
:1052B000D5FCDDE90F010E9A03910021009207F160
:1052C000010A04914DE04FF000400097CDE9011034
:1052D00006A90EA8FFF7C2FCDDE90F0203920E9BA0
:1052E00011990022DDF80CA00093049211B9791CE9
:1052F00000EB010AB7EB0A0004D4C0F1FF3007F15C
:10530000010A0490AAEB0700019044E0012F00DAA3
:1053100001270021112F01DD112000E03846CDE9E1
:10532000000106A90EA8FFF799FCDDE90F010E9A0E
:105330000391002104910092BA4621070CD40399ED
:10534000514500DA8A46BAF1010F05DD009AAAF14B
:105350000101515C302908D0B84202DA10F1040F83
:1053600006DA0121CDE9011015E0AAF10101E9E712
:10537000002805DC049901440491AAEB000102E035
:10538000411C514500DD8A460499401A401C019099
:105390004FF000400290200704D40198504501DBF3
:1053A000CDF8048000208DF84F0002980DF14F07D2
:1053B000B0F1004F25D02B200E9002984FF002083C
:1053C00000280CDA404202902D200E9007E00A21BE
:1053D0000298FBF797FB3031029007F8011DB8F1F6
:1053E0000001A8F10108F2DC02980028EFD1791E33
:1053F0000E980870307800F0200040F0450007F863
:10540000020D12A8C01B00F107081498007800B123
:10541000012000EB0A01019801EBE071059841447D
:10542000401A401E0590E00306D45B462146179AB9
:10543000059800F05DF805441498007818B15A46B4
:10544000179990476D1CE00324D55B462146179AB7
:10545000059800F04DF805441CE00498002807DB8F
:10546000DDE90301884203DD0098405C179901E003
:10547000179930205A469047049805F10105401CC1
:1054800004900198401E019004D12E205A4617998D
:1054900090476D1CBAF10001AAF1010ADDDC05E0BC
:1054A00017F8010B5A46179990476D1CB8F1000187
:1054B000A8F10108F4DC5B462146179A0598ABE693
:1054C0002D0000002B000000200000002DE9F0411D
:1054D000044600251E461746880404D405E03946D4
:1054E0002020B0476D1C641EF9D52846BDE8F08128
:1054F0002DE9F041044600251E469046C80301D51B
:10550000302700E02027880404D505E041463846CE
:10551000B0476D1C641EF9D52846BDE8F08170B512
:1055200004460D4629462068FBF7E2FA00D22560C2
:1055300085F0004630462168FBF7DAFA02D285F0A2
:105540000040206070BD00002DE9FF4782465146B3
:1055500051A0FFF747FB56A0FFF744FB57480078E0
:1055600020B1012806D002280CD107E054A0FFF793
:1055700039FB07E054A0FFF735FB03E054A0FFF729
:1055800031FB00BF00BF4D48407810B1012808D161
:1055900003E051A0FFF726FB03E051A0FFF722FB39
:1055A00000BF00BF4548807830B1012825D00228CF
:1055B00044D003286CD15AE04CA0FFF713FB4DA058
:1055C000FFF710FB3D49C868FBF729FA04460D4672
:1055D0003A498868FBF723FA06460F463749486878
:1055E000FBF71DFA804642460B4644A0CDE9006712
:1055F000CDE90245FFF7F6FA4AE045A0FFF7F2FAD7
:105600003CA0FFF7EFFA2D49C868FBF708FA0446FB
:105610000D462A498868FBF702FA06460F462749D5
:105620004868FBF7FCF9804642460B4633A0CDE9BB
:105630000067CDE90245FFF7D5FA29E037A0FFF76B
:10564000D1FA2CA0FFF7CEFA1C498868FBF7E7F9DE
:1056500004460D4619494868FBF7E1F9064632460B
:105660000B4627A0CDE90045FFF7BCFA10E02EA0BD
:10567000FFF7B8FA1FA0FFF7B5FA10494868FBF723
:10568000CEF9044622460B461EA0FFF7ABFA00BF38
:1056900000BFBDE8FF87000073656E74206166740B
:1056A00065722025646D73202D2D3E2020000000A2
:1056B00072656365697665642D3E2000B004002044
:1056C0006D6F746F723120006D6F746F72322000D5
:1056D0006D6F746F72200000737065656420000048
:1056E0006C6F636174696F6E20000000505F495FEA
:1056F000442000007365742D3E20000025662C2098
:1057000025662C202566204F4B210D0A0000000045
:105710006572725F6C696D69742000006F75745FEB
:105720006C696D6974200000746172676574200093
:105730007CB500245548564B564A57A100905A480C
:10574000FAF766FD0646701C08B901207CBD0622EA
:1057500056A15048FAF74DFD18B900205549087078
:1057600015E0062254A14B48FAF743FD18B9012071
:10577000504908700BE0052251A14648FAF739FD5F
:1057800018B902204B49087001E00120DEE705222C
:105790004DA13F48FAF72DFD18B900204549487042
:1057A0000BE008224AA13A48FAF723FD18B9012074
:1057B0004049487001E00120C8E7052247A133486D
:1057C000FAF717FD20B900203A498870032422E037
:1057D000092244A12D48FAF70CFD20B901203549D2
:1057E0008870032417E0092241A12848FAF701FD37
:1057F00020B902202F49887002240CE005223FA125
:105800002248FAF7F6FC20B903202A4988700124BF
:1058100001E001209AE73A212348FAF7D9FC05462E
:105820000DB9012092E7032C0BD1364921480C30E9
:10583000031F1A1FCDE9000133A12846FAF7E8FC3F
:105840000646022C09D12F481A4B08331A1F32A1E1
:1058500000902846FAF7DCFC0646012C07D1294BBC
:10586000144A121D2FA12846FAF7D2FC0646701CD6
:1058700008B901206AE703222CA12248FAF7B9FCF3
:1058800008B1012062E7002060E700003604002034
:105890002C0400205400002025732025732025733C
:1058A000207365743A000000AC0300206D6F746FC4
:1058B00072310000B00400206D6F746F723200000E
:1058C0006D6F746F72000000737065656400000096
:1058D0006C6F636174696F6E00000000505F495F18
:1058E000440000006572725F6C696D6974000000AD
:1058F0006F75745F6C696D69740000007461726724
:10590000657400005C0000203A2025662C20256686
:105910002C202566202573003A2025662C2025663C
:10592000202573003A202566202573004F4B3F0049
:1059300000BF054A126802F04002002AF9D0C2B244
:10594000014B1B1D1A60704700380140FCF7A0FB9B
:10595000FEF7FCFCFEF706F9FEF7EAF8FEF716FA8A
:10596000FEF73AFAFEF75EFAFEF79EFAFEF7B4F992
:10597000FEF772F900211248FDF73CFA04211048A5
:10598000FDF738FA00210F48FDF734FA04210D48DD
:10599000FDF730FA0C48FDF78BF80C48FDF788F856
:1059A000FBF70EFDFEF7A6FB0020FEF71DFB012016
:1059B000FEF71AFB03E04FF47A70FBF7A5FDFAE758
:1059C00088000020A80100201801002060010020AC
:1059D0002DE9F04704468A469146E06A2063C4F800
:1059E00028A0C4F8249051464846FAF79FFEE0628A
:1059F0000021E068FBF772F812D0E068FBF70FF8BF
:105A000005460E46E06AFBF70AF821F0004107461A
:105A10002A463346FBF72EF802D20020BDE8F08775
:105A200000212069FBF75AF811D02069FAF7F7FF37
:105A300005460E46E06AFAF7F2FF21F000410746FC
:105A40002A463346FAF7FEFF01D20020E062E16AFF
:105A50002068FAF771FE606300216069FBF73EF889
:105A600012D06069FAF7DBFF05460E46E06AFAF7E6
:105A7000D6FF21F0004107462A463346FAF7FAFFDF
:105A800002D20020A06308E0E16A6068FAF754FEE1
:105A90000546A16BFAF7F8FDA063D4E90B01FAF70C
:105AA00045FE0546A168FAF747FEE06304F13800B9
:105AB000E169FFF734FDD4E90D01FAF7E5FD05468C
:105AC000E16BFAF7E1FD206404F14000A169FFF702
:105AD00026FD94F8200008B900202064206C9DE782
